:100000003DEF01F00000000000EF00F000000000F4
:0A0010000000000000000000F3D71C
:10001C000F0E0C6E470E0D6E0D2EFED70C2EFCD750
:06002C00000000001200BC
:0A003200210E0D6E0D2EFED71200F8
:06003C00000000001200AC
:1000420063BE02D0829E01D0828E63BC02D0829CAB
:1000520001D0828C63BA02D0829A01D0828A63B8BC
:1000620002D0829801D082884BB002D0838001D026
:1000720083908384E2DF839463B602D0829E01D0B0
:10008200828E63B402D0829C01D0828C63B202D091
:10009200829A01D0828A63B002D0829801D082888B
:1000A2004BB002D0838001D083908384C6DF8394D7
:0C00B2004BA002D0B2DF01D0BBDF120077
:0C00BE004B9062C063F0BEDF4B8012006C
:1000CA00086A080E0C6E003408360450085ED8B070
:0E00DA0002D00826D89000360C2EF5D7120062
:1000E800959495909498949A949C949E83948390D4
:1000F800829E829C829A82988DDF8CDF8BDF828A37
:100108008288838497DF839485DF838493DF839455
:1001180081DF83848FDF83947DDF829883848ADF05
:10012800839478DF838486DF8394829A828E8384A3
:1001380081DF83946FDF829E828883847BDF839450
:100148008298838477DF839465DF838473DF839465
:10015800828883846FDF83945DDF829883846ADF7B
:100168008394828E828C828A8288838463DF8394DC
:0601780051DF4B80120074
:10017E000900F5CFE6FF0006FBE10106F9E11200EA
:10018E005F6A030E5F5C0AE25F505D24E16E000E53
:10019E005E20E26E200EE66E5F2AF3D75F505D247E
:1001AE00E16E000E5E20E26EE66A5F065F505D2431
:1001BE00606E000E5E20616E0A0E046E5CC000F072
:1001CE007DDF08C000F0300E002660C0E1FF61C088
:1001DE00E2FF00C0E6FF0A0E046E5CC000F06EDFA8
:1001EE0000C05CF00050000A01E102D05F06DED7CD
:0201FE001200ED
:100200000FD0800E5C6E19D0C00E5C6E16D0940EAE
:100210005C6E13D0D40E5C6E10D0800E5C6E0DD070
:100220005C50010AEEE05C50020AEEE05C50030A0A
:10023000EEE05C50040AEEE0F0D75D04006E5C5026
:10024000002600C05CF000C063F0FBDE4B90606AEB
:1002500060505E24E96E000E5F20EA6EEE520BE005
:1002600060505E24E96E000E5F20EA6EEECF62F011
:0A02700026DF602AEDD74B80120054
:10027A004BEC02F0596A5A6A5B6A956A946A070EED
:10028A00936E2DDF010E636ED7DE0C0E636ED4DE25
:10029A00010E5C6E050E5D6E370E5E6E000E5F6EB1
:1002AA00AADF010E5C6E070E5D6E350E5E6E000EE5
:1002BA005F6EA1DF010E5C6E080E5D6E3C0E5E6E17
:1002CA00000E5F6E98DF010E5C6E0B0E5D6E3A0ECD
:1002DA005E6E000E5F6E8FDF010E5C6E0C0E5D6E41
:1002EA00420E5E6E000E5F6E86DF020E5C6E070EB9
:1002FA005D6E460E5E6E000E5F6E7DDF020E5C6EF8
:10030A000B0E5D6E400E5E6E000E5F6E74DF59500E
:10031A003B0802E2596A5A2A592A81A000D0595048
:10032A003B0802E2596A5A2A5A503B0802E25A6AC0
:10033A005B2A5B501708D8A05B6A59C05CF04D0E67
:10034A005D6E000E5E6E1EDF5AC05CF0510E5D6E71
:10035A00000E5E6E17DF5BC05CF0550E5D6E000E20
:10036A005E6E10DF81A001D028D0020E5C6E030EF3
:10037A005D6E550E5E6E000E5F6E3DDF020E5C6EA8
:10038A00080E5D6E510E5E6E000E5F6E34DF020E59
:10039A005C6E0C0E5D6E4D0E5E6E000E5F6E2BDF98
:1003AA00050E0B6E0F0E0C6EF10E0D6E0D2EFED796
:1003BA000C2EFCD70B2EFAD7AFD781B25A2A81B4AA
:1003CA005B2A5A503B0802E25A6A5B2A5B501708BA
:1003DA00D8A05B6A59C05CF04D0E5D6E000E5E6E71
:1003EA00D1DE5AC05CF0510E5D6E000E5E6ECADE42
:1003FA005BC05CF0550E5D6E000E5E6EC3DE020ED3
:10040A005C6E030E5D6E550E5E6E000E5F6EF3DE61
:10041A00020E5C6E080E5D6E510E5E6E000E5F6E11
:10042A00EADE020E5C6E0C0E5D6E4D0E5E6E000E06
:10043A005F6EE1DE020E0B6E040E0C6EBA0E0D6ECE
:10044A000D2EFED70C2EFCD70B2EFAD7000081B04A
:08045A0001D05DD7B2D7FFD736
:1004960010EE15F0330E006E010E016E620EF66E52
:0E04A600040EF76E000EF86EBFEC00F01200B0
:080462004C0049004A0048006B
:08046A0049004A0048004C0063
:0804720048004C0049004A005B
:08047A004A0048004C00490053
:020482003A003E
:03048400487200BB
:020487003A0039
:040489004D696E004B
:02048D003A0033
:04048F00536563004E
:020493003A002D
:020000040030CA
:0D000100220F0EFF0181FF0FC00FE00F4026
:00000001FF
