:10000000ADEF01F00000000000EF00F00000000084
:0A0010000000000000000000F3D71C
:0A001C00210E0D6E0D2EFED712000E
:100026000F0E0C6E470E0D6E0D2EFED70C2EFCD746
:06003600000000001200B2
:06003C00000000001200AC
:1000420044BE02D0829E01D0828E44BC02D0829CE9
:1000520001D0828C44BA02D0829A01D0828A44B8FA
:1000620002D0829801D0828825B002D0838001D04C
:1000720083908384E2DF839444B602D0829E01D0CF
:10008200828E44B402D0829C01D0828C44B202D0CF
:10009200829A01D0828A44B002D0829801D08288AA
:1000A20025B002D0838001D083908384C6DF8394FD
:0C00B20025A002D0B7DF01D0B0DF1200A3
:1000BE00086A080E0C6E003408360450085ED8B07C
:0E00CE0002D00826D89000360C2EF5D712006E
:1000DC00220E0C6E086A096A0A6A0B6A0C06D8B4FE
:1000EC001FD0D8900B320A32093208320332023256
:1000FC0001320032D8A0F2D70C06D8B409D0045083
:10010C0008260550092206500A2207500B22EAD76E
:10011C00045008260550092206500A2207500B22CB
:02012C001200BF
:0C012E00259042C044F086DF25801200BE
:10013A0042C026F043C027F0000E286E296E010E39
:04014A00246E12000D
:10014E00959495909498949A949C949E839483906D
:10015E00829E829C829A82985FDF5EDF5DDF828A5A
:10016E008288838464DF839457DF838460DF839483
:10017E0053DF83845CDF83944FDF8298838457DF61
:10018E0083944ADF838453DF8394829A828E83849E
:10019E004EDF839441DF829E8288838448DF83947E
:1001AE008298838444DF839437DF838440DF839493
:1001BE00828883843CDF83942FDF8298838437DFA9
:1001CE008394828E828C828A8288838430DF8394A9
:0601DE0023DF2580120062
:1001E4000900F5CFE6FF0006FBE10106F9E1120084
:1001F4000FD0800E3C6E19D0C00E3C6E16D0940EFB
:100204003C6E13D0D40E3C6E10D0800E3C6E0DD0DC
:100214003C50010AEEE03C50020AEEE03C50030A76
:10022400EEE03C50040AEEE0F0D73D04006E3C5092
:10023400002600C03CF000C044F001DF2590406A75
:1002440040503E24E96E000E3F20EA6EEE520BE071
:1002540040503E24E96E000E3F20EA6EEECF42F09D
:0A02640064DF402AEDD72580120068
:10026E003F6A030E3F5C0AE23F503D24E16E000EF2
:10027E003E20E26E200EE66E3F2AF3D73F503D241D
:10028E00E16E000E3E20E26EE66A3F063F503D24D0
:10029E00406E000E3E20416E0A0E046E3CC000F011
:1002AE0007DF08C000F0300E002640C0E1FF41C05D
:1002BE00E2FF00C0E6FF0A0E046E3CC000F0F8DE5E
:1002CE0000C03CF00050000A01E102D03F06DED72C
:0202DE0012000C
:1002E000245205E1010E426E000E436E26DF26C049
:1002F00000F027C001F028C002F029C003F06D0E05
:10030000046E4E0E056EC60E066E410E076EE6DEDC
:10031000390E0024056E300E0120066E000E0220FC
:10032000076E000E0320086E07C000F008C001F041
:10033000000E08BEFF0E026E036EFF0E00167F0E4B
:100340000116000E0216031600C026F001C027F0A9
:0A03500002C028F003C029F01200DB
:10035A00590E156E6F0E166E750E176E720E186E9A
:10036A00200E196E330E1A6E200E1B6E6E0E1C6E48
:10037A00750E1D6E6D0E1E6E620E1F6E650E206E60
:10038A00720E216E730E226E236A3B6A946A956A14
:10039A00030E936E826AD6DE010E446E4DDE0C0E9B
:1003AA00446E4ADE010E3C6E040E3D6E150E3E6E24
:1003BA00000E3F6E1ADF3B6A8EDF00C02AF000C0D3
:1003CA003CF02B0E3D6E000E3E6E4CDF020E3C6E74
:1003DA00070E3D6E2B0E3E6E000E3F6E06DF81A0AD
:1003EA0023D03B2A3B50010A07E12AC03CF02F0EDA
:1003FA003D6E000E3E6E36DF3B50020A07E12AC010
:10040A003CF0330E3D6E000E3E6E2CDF3B50030A6D
:10041A0008E12AC03CF0370E3D6E000E3E6E22DF28
:10042A0004D081A001D0FDD7C7D7020E3C6E070EBB
:10043A003D6E2F0E3E6E000E3F6ED7DE060E0B6E21
:10044A00130E0C6EAD0E0D6E0D2EFED70C2EFCD7B4
:10045A000B2EFAD700000000020E3C6E070E3D6E0E
:10046A00330E3E6E000E3F6EC0DE060E0B6E130E8E
:10047A000C6EAD0E0D6E0D2EFED70C2EFCD70B2E6C
:10048A00FAD700000000020E3C6E070E3D6E370ED2
:10049A003E6E000E3F6EA9DE060E0B6E130E0C6E3C
:1004AA00AD0E0D6E0D2EFED70C2EFCD70B2EFAD7E5
:0E04BA000000000081A201D07ED7B7D7FFD787
:020000040030CA
:0D000100220F0EFF0181FF0FC00FE00F4026
:00000001FF
