:1000000076EF01F00000000000EF00F000000000BB
:0A0010000000000000000000F3D71C
:10001C000F0E0C6E470E0D6E0D2EFED70C2EFCD750
:06002C00000000001200BC
:0A003200210E0D6E0D2EFED71200F8
:06003C00000000001200AC
:1000420040BE02D0839E01D0838E40BC02D0839CEE
:1000520001D0838C40BA02D0839A01D0838A40B8FF
:1000620002D0839801D0838830B002D0818001D041
:1000720081908184E2DF819440B602D0839E01D0D8
:10008200838E40B402D0839C01D0838C40B202D0D4
:10009200839A01D0838A40B002D0839801D08388AA
:1000A20030B002D0818001D081908184C6DF8194FA
:0C00B20030A002D0B2DF01D0BBDF120092
:1000BE00086A080E0C6E003408360450085ED8B07C
:0E00CE0002D00826D89000360C2EF5D712006E
:0C00DC0030903FC040F0AFDF30801200D9
:0A00E800000E9EBA010E006E120019
:1000F200939493909598959A959C959E81948190CE
:10010200839E839C839A839888DF87DF86DF838A36
:100112008388818492DF819480DF81848EDF819461
:100122007CDF81848ADF819478DF8398818485DF14
:10013200819473DF818481DF8194839A838E8184A9
:100142007CDF81946ADF839E8388818476DF819459
:100152008398818472DF819460DF81846EDF819471
:10016200838881846ADF819458DF8398818465DF84
:100172008194838E838C838A838881845EDF8194D9
:060182004CDF308012008A
:100188000900F5CFE6FF0006FBE10106F9E11200E0
:10019800FF0E316EFF0E326EFF0E336EFF0E346EA1
:1001A800EE0E246E010E256E000E266E000E276ED2
:1001B800E80E286E000E296E000E2A6E000E2B6EB9
:1001C800FF0E2C6EFF0E2D6E000E2E6E000E2F6E83
:1001D800AC8A900EAB6E948E949C9EAA03D0AECF40
:0601E80000F0FBD712003D
:1001EE00AECF01F0ABA202D0AB98AB8801C000F04D
:0201FE001200ED
:100200003C6A030E3C5C0AE23C503A24E16E000E6C
:100210003B20E26E200EE66E3C2AF3D73C503A2497
:10022000E16E000E3B20E26EE66A3C063C503A244A
:100230003D6E000E3B203E6E0A0E046E39C000F08B
:100240003EDF08C000F0300E00263DC0E1FF3EC09A
:10025000E2FF00C0E6FF0A0E046E39C000F02FDF97
:1002600000C039F00050000A01E102D03C06DED7A0
:0202700012007A
:100272000FD0800E396E19D0C00E396E16D0940E82
:10028200396E13D0D40E396E10D0800E396E0DD067
:100292003950010AEEE03950020AEEE03950030A01
:1002A200EEE03950040AEEE0F0D73A04006E39501D
:1002B200002600C039F000C040F0C2DE30903D6A36
:1002C2003D503B24E96E000E3C20EA6EEE520BE0FC
:1002D2003D503B24E96E000E3C20EA6EEECF3FF02B
:0A02E200FCDE3D2AEDD7308012004B
:1002EC00590E156E6F0E166E750E176E720E186E09
:1002FC00200E196E330E1A6E200E1B6E6E0E1C6EB7
:10030C00750E1D6E6D0E1E6E620E1F6E650E206ECE
:10031C00720E216E730E226E236A956A936A330EE7
:10032C00AF6EAC8433DF020E0B6E040E0C6EBA0E85
:10033C000D6E0D2EFED70C2EFCD70B2EFAD700000F
:10034C00D2DE010E406E77DE0C0E406E74DE010EB6
:10035C00396E040E3A6E150E3B6E000E3C6E83DF4A
:10036C00BDDE005211E03DDF00C039F0350E3A6EB3
:10037C00000E3B6E3FDF020E396E070E3A6E350EE5
:0C038C003B6E000E3C6E6FDFEBD7FFD71E
:020000040030CA
:0D000100220F0EFF0181FF0FC00FE00F4026
:00000001FF
