:10000000B8EF00F00000000000EF00F0000000007A
:0A0010000000000000000000F3D71C
:10001C00220E0C6E086A096A0A6A0B6A0C06D8B4BE
:10002C001FD0D8900B320A32093208320332023216
:10003C0001320032D8A0F2D70C06D8B409D0045043
:10004C0008260550092206500A2207500B22EAD72F
:10005C00045008260550092206500A2207500B228C
:02006C00120080
:10006E0030C019F031C01AF0000E1B6E1C6E010E5E
:04007E001D6E1200E1
:0E008200ACB202D00000FCD72FC0ADFF1200C0
:100090000900F5CFE6FF0006FBE10106F9E11200D9
:1000A000820E156E000E166E2F0E176E000E186E55
:1000B000FF0E266EFF0E276E000E286E000E296EB4
:1000C000FF0E226EFF0E236E000E246E000E256EB4
:1000D000FF0E1E6EFF0E1F6E000E206E000E216EB4
:1000E000AC8A900EAB6E948E949C9EAA03D0AECF39
:0600F00000F0FBD7120036
:1000F6001D5205E1010E306E000E316EB5DF19C0DE
:1001060000F01AC001F01BC002F01CC003F06D0E17
:10011600046E4E0E056EC60E066E410E076E7BDF32
:10012600390E0024056E300E0120066E000E0220E8
:10013600076E000E0320086E07C000F008C001F02D
:10014600000E08BEFF0E026E036EFF0E00167F0E37
:100156000116000E0216031600C019F001C01AF0AF
:0A01660002C01BF003C01CF01200E1
:100170002B6A2C6A2D6A2E6A330EAF6EAC8490DF28
:10018000020E0B6E040E0C6EBA0E0D6E0D2EFED707
:100190000C2EFCD70B2EFAD70000956A030E936E37
:1001A0002E6AA9DF00C02AF000C02FF06ADF2AC043
:1001B00083FF81A014D02E2A2E50010A02E12AC00A
:1001C0002BF02E50020A02E12AC02CF02E50030A16
:1001D00003E12AC02DF004D081A001D0FDD7E1D7E2
:1001E0002BC02FF04EDF2BC083FF060E0B6E130EBD
:1001F0000C6EAD0E0D6E0D2EFED70C2EFCD70B2EF9
:10020000FAD7000000002CC02FF03BDF2CC083FF8A
:10021000060E0B6E130E0C6EAD0E0D6E0D2EFED770
:100220000C2EFCD70B2EFAD7000000002DC02FF0AB
:1002300028DF2DC083FF060E0B6E130E0C6EAD0E65
:100240000D6E0D2EFED70C2EFCD70B2EFAD700000C
:0C025000000081A201D0A4D7C3D7FFD7C3
:020000040030CA
:0D000100220F0EFF0181FF0FC00FE00F4026
:00000001FF
