:10000000F8EF02F00000000000EF00F00000000038
:0A0010000000000000000000F3D71C
:10001C000F0E0C6E470E0D6E0D2EFED70C2EFCD750
:06002C00000000001200BC
:0A003200210E0D6E0D2EFED71200F8
:06003C00000000001200AC
:080042000AAE029E000E12003E
:10004A000B840BAE30EF00F0010E036E026A016AF8
:0A005A00006A0A360232FF0E12009F
:0E006400026A016A006A086A036A000E12004E
:1000720034BE02D0829E01D0828E34BC02D0829CD9
:1000820001D0828C34BA02D0829A01D0828A34B8EA
:1000920002D0829801D0828825B002D0838001D01C
:1000A20083908384CADF839434B602D0829E01D0C7
:1000B200828E34B402D0829C01D0828C34B202D0BF
:1000C200829A01D0828A34B002D0829801D082888A
:1000D20025B002D0838001D083908384AEDF8394E5
:0C00E20025A002D09ADF01D0A3DF12009D
:1000EE000B800BAE83EF00F0026A0AAEFF0E026EBB
:0C00FE00016E006E0A360232FF0E120086
:0C010A00259033C034F0B0DF25801200D7
:100116000B820BAE95EF00F0036802680168006879
:080126000A360232FF0E12003E
:10012E00086A096A100E0C6E01340836093604503E
:10013E00085E0550D8A0053C095ED8B007D0045023
:10014E0008260550D8B0053C0926D8900036013651
:06015E000C2EEAD712008E
:100164000C6A0E6A0250D8A4CBEF00F001C002F072
:1001740000C001F0006A0E860250D8A4CBEF00F054
:1001840001C002F0016A0E960E880250D8B4DDEF69
:1001940000F00E50035ED8A4D8A0E2EF00F0D8908F
:1001A40002BEE7EF00F0003601360236032ED2EF2E
:1001B40000F0E2EF00F0010E0C6E52DFEAEF00F007
:1001C400020E0C6E40DFEAEF00F0040E0C6E37DF17
:0201D400120017
:0C01D6000E0E0D6E0D2EFED70000120064
:1001E2000900F5CFE6FF0006FBE10106F9E1120086
:1001F200959495909498949A949C949E83948390C9
:10020200829E829C829A829808DF07DF06DF828ABA
:100212008288838412DF839400DF83840EDF8394D9
:10022200FCDE83840ADF8394F8DE8298838405DF10
:100232008394F3DE838401DF8394829A828E8384A3
:10024200FCDE8394EADE829E82888384F6DE8394D7
:1002520082988384F2DE8394E0DE8384EEDE8394EC
:1002620082888384EADE8394D8DE82988384E5DE02
:100272008394828E828C828A82888384DEDE839457
:06028200CCDE2580120015
:100288000FD0800E2C6E19D0C00E2C6E16D0940E86
:100298002C6E13D0D40E2C6E10D0800E2C6E0DD078
:1002A8002C50010AEEE02C50020AEEE02C50030A12
:1002B800EEE02C50040AEEE0F0D72D04006E2C502E
:1002C800002600C02CF000C034F0CFDE2590306A44
:1002D80030502E24E96E000E2F20EA6EEE520BE00D
:1002E80030502E24E96E000E2F20EA6EEECF33F048
:0A02F80008DF302AEDD72580120040
:10030200306A050E305C0AE230502E24E16E000E97
:100312002F20E26E200EE66E302AF3D730502E24C4
:10032200E16E000E2F20E26EE66A300630502E2477
:10033200316E000E2F20326E0A0E046E000E056E14
:100342002CC000F02DC001F0F1DE08C000F009C0A1
:1003520001F0300E002631C0E1FF32C0E2FF00C0E2
:10036200E6FF0A0E046E000E056E2CC000F02DC0D2
:1003720001F0DCDE00C02CF001C02DF0000E0118EF
:1003820002E1000E001801E102D03006CFD71200C0
:10039200086A096A000E076203644EEF02F0025017
:1003A20006180A6E075003267E0ED8A0DFEF01F072
:1003B200035ED8B052EF02F0E3EF01F0035ED8A083
:1003C20056EF02F0028E068E02C00EF001C00BF054
:1003D20000C00DF000500402F4CF0CF001500502F1
:1003E200F4CF00F0F3CF08F00402F3500C26F450DF
:1003F2000822000E00220D500502F3500C26F45084
:100402000822000E002202500402F3500826F45083
:10041200002202500502016A000E0122F35000265A
:10042200F45001220D500602F3500826F450002227
:10043200026A000E012202220B500602F35000262D
:10044200F4500122000E02220E500602F350012641
:10045200F450022202BE36EF02F0083600360136B0
:1004620002360306D8B456EF02F049EF02F0D88004
:10047200800E08640030000E002201220222D8A061
:1004820049EF02F0023201320032034A52EF02F027
:100492000AAE029E000E58EF02F0010EE2DD58EFA6
:1004A20002F0020E37DE58EF02F0040ECDDD12002C
:1004B2000050086E0150006E016A026A036A0B6AFC
:1004C2000C6A960E036E0A6A00C001F008C000F0C2
:0804D200086A026A46DE12000E
:1004DA000B6A0350D8B4B3EF02F002500A6E028ED0
:1004EA008E0E035E03AEB7EF02F0036C080E035CD8
:1004FA00D8A092EF02F0036E013602C001F0026A40
:10050A00080E035CD8A092EF02F0036E0136016A6E
:10051A000350D8A4D8909CEF02F00350D8B49CEFB3
:10052A0002F0D89002320132032E96EF02F00BBC91
:10053A0001A0A9EF02F0D8A0A9EF02F0012AD8B4CD
:10054A00022A02BEC6EF02F00AAECBEF02F0021E8A
:10055A00011E012AD8B4022ACBEF02F0026A016A0C
:10056A00CBEF02F00B800BAECFEF02F0026A0AAEBD
:10057A00CFEF02F0FF0E026E016E0A360232CFEFA3
:10058A0002F0010E0C6EAEDDD1EF02F0000E0C6E21
:10059A00D1EF02F0FF0E0C6E0150006E0250016E98
:0205AA0012003D
:1005AC00C26AC00EC212241C006E0050C116C18C4F
:1005BC00C18E2CC000F00036009000360090003642
:1005CC0000900050C212C28000DEC284C2A401D0CE
:1005DC00FDD7C4CF01F0006AC3500012000E011207
:0405EC00C2901200A7
:1005F00035EC03F0946A956AFCDD010E346E39DD4A
:100600000C0E346E36DD010E2C6E020E2D6E150EA4
:100610002E6E000E2F6E38DE2C6AC8DF4ADF100EF9
:10062000046E580E056E790E066E7D0E076EB1DEF5
:1006300054DF00C02CF001C02DF0260E2E6E000EEF
:100640002F6E5FDE020E2C6E050E2D6E260E2E6EA8
:0A065000000E2F6E19DEE0D7FFD771
:10066A0010EE15F0100E006E010E016E5A0EF66EA7
:0E067A00060EF76E000EF86EF1EC00F01200A6
:0F065A0054656D70657261747572652027430079
:010669000F81
:020000040030CA
:0D000100220F0EFF0181FF0FC00FE00F4026
:00000001FF
